:100000000110040013000000201C0000FF0000008D
:10001000020BE1751AFF22FFFFFFFF0215B27E06F9
:10002000900074E06F6007EFF0E4900077F09000CC
:1000300074E07001FE900077E004F0C39E50037FEF
:1000400000229000777406F07F01220216D8E4FBAC
:10005000EB25E025E02474F8120232EB25E025E0E0
:10006000247CF812024B0BBB02E622021120BB01DA
:100070000689828A83E0225002E722BBFE02E32245
:1000800089828A83E49322EF8DF0A4A8F0CF8CF0CC
:10009000A428CE8DF0A42EFE22BC000BBE0029EFBA
:1000A0008DF084FFADF022E4CCF875F008EF2FFF5F
:1000B000EE33FEEC33FCEE9DEC984005FCEE9DFE2D
:1000C0000FD5F0E9E4CEFD22EDF8F5F0EE8420D274
:1000D0001CFEADF075F008EF2FFFED33FD400798E3
:1000E0005006D5F0F222C398FD0FD5F0EA22E88F32
:1000F000F0A4CC8BF0A42CFCE98EF0A42CFC8AF0AC
:10010000EDA42CFCEA8EF0A4CDA8F08BF0A42DCCAD
:100110003825F0FDE98FF0A42CCD35F0FCEB8EF006
:10012000A4FEA9F0EB8FF0A4CFC5F02ECD39FEE4EC
:100130003CFCEAA42DCE35F0FDE43CFC2275F00831
:10014000758200EF2FFFEE33FECD33CDCC33CCC51F
:100150008233C5829BED9AEC99E58298400CF5823A
:10016000EE9BFEED9AFDEC99FC0FD5F0D6E4CEFBAC
:10017000E4CDFAE4CCF9A88222B800C1B90059BA9A
:10018000002DEC8BF084CFCECDFCE5F0CBF97818C8
:10019000EF2FFFEE33FEED33FDEC33FCEB33FB10C2
:1001A000D703994004EB99FB0FD8E5E4F9FA2278DC
:1001B00018EF2FFFEE33FEED33FDEC33FCC933C9EE
:1001C00010D7059BE99A4007EC9BFCE99AF90FD8F8
:1001D000E0E4C9FAE4CCFB2275F010EF2FFFEE3318
:1001E000FEED33FDCC33CCC833C810D7079BEC9A57
:1001F000E899400AED9BFDEC9AFCE899F80FD5F0E0
:10020000DAE4CDFBE4CCFAE4C8F922EB9FF5F0EA9E
:100210009E42F0E99D42F0E89C45F022E8600FEC38
:10022000C313FCED13FDEE13FEEF13FFD8F122E82C
:10023000600FEFC333FFEE33FEED33FDEC33FCD83C
:10024000F122E6FC08E6FD08E6FE08E6FF22E6FBF2
:1002500008E6F908E6FA08E6CBF822ECF608EDF62F
:1002600008EEF608EFF622ECF208EDF208EEF208DE
:10027000EFF222D083D082E493F608740193F6085B
:10028000740293F608740393F6740473D083D082D7
:10029000E493F208740193F208740293F208740371
:1002A00093F27404738A838982E473E4F530E53051
:1002B00025E025E0247CF8C000120232C007745209
:1002C0002530F8E6FFFBE4FAF9F8D0071200DED09B
:1002D0000012024BE53025E025E0247CF8C0001236
:1002E0000232780712020CD00012024BE53025E0F2
:1002F00025E0247CF8120232EC4D4E4F6076E5305A
:1003000025E025E0246CF8120232E53025E025E0F6
:10031000247CF812023EC31201FB50037F0322E546
:100320003025E025E0246CF812023EC000E53025BF
:10033000E025E0247CF8120232D000C3EF9BF534B4
:10034000EE9AF533ED99F532EC98F531E47FFF7EC6
:10035000FFFDFCAB34AA33A932A831C31201FB4024
:10036000037F0322E53025E02400F8E533F208E5B9
:1003700034F28015E530C39402500BE53025E024BB
:1003800008F8E4F208F27F03220530E530640260E9
:100390000302029EE4F530E53025E02404F8E2FE95
:1003A00008E2FFE53025E02400F8E2FC08E2FDD396
:1003B0009FEC9E401EE53025E02404F8E2FE08E2B2
:1003C000FFC3ED9FFFEC9EFEE48F388E37F536F5C8
:1003D000358009E4F538F537F536F535AF38AE3701
:1003E000AD36AC35780712021F8F388E378D368CBC
:1003F00035900074E070447F03FEFDFCAB38AA37F3
:10040000A936A8351200DEE53025E025E02414F8F1
:10041000E2FB08E2F908E2FA08E2CBF8EB2FFFEA88
:100420003EFEE93DFDE83CFC780212020CE5302579
:10043000E025E02414F81202578033E53025E0254A
:10044000E02414F8E2FC08E2FD08E2FE08E22538A8
:10045000FFEE3537FEED3536FDEC3535FC78011213
:10046000020CE53025E025E02414F8120257E530AF
:1004700025E025E02414F8E2FC08E2FD08E2FE088D
:10048000E2FF780712020CE53025E02408F8EEF2CE
:1004900008EFF20530E530640260030203877F074E
:1004A000228E328F33E4F535F536F537900087E04C
:1004B000F536A3E0F537E4F534E5187016900077CB
:1004C000E0B4060FD3900091E09400900090E09487
:1004D00000401EE53425E02448F8E4F208F2E53453
:1004E00025E025E0243CF812027C00000000020513
:1004F000A8E53425E02449F9E3700219E3701AE510
:100500003425E02400F8E2FE08E2FFE53425E0248B
:1005100044F8EEF208EFF28057E53425E02444F881
:10052000E2FE08E2FFE53425E02400F8E2FC08E200
:10053000FD121AE5D3EF9537EE95364033E53425B5
:10054000E02400F8E2FE08E2FFE53425E02444F868
:10055000EEF208EFF2E53425E02448F8E4F208F280
:10056000E53425E025E0243CF812027C0000000080
:10057000E53425E02400F8E2FE08E2FFE53425E05A
:1005800025E0243CF8C000E2FB08E2F908E2FA08A2
:10059000E2CBF8E4FCFDEB2FFFEA3EFEED39FDEC8B
:1005A00038FCD000120257E53425E02448F808E270
:1005B0002401F218E23400F20534E534C394025009
:1005C000030204A9E4F534E53425E02449F9C3E342
:1005D000953319E39532400205350534E534B4020C
:1005E000E6E5356402600302068574FF900089F039
:1005F000A3F0E4A3F0A3F0F534E53425E02448F8B3
:10060000E2FE08E2FF4E7003020685E4FCFDC00432
:10061000A905AA06AB07E53425E025E0243CF8E26D
:10062000FC08E2FD08E2FE08E2FFD0001201698E3C
:10063000388F39D390008AE09539900089E0953859
:100640004007E538F0A3E539F0C390008CE0953918
:1006500090008BE095385007E538F0A3E539F0E5D8
:100660003425E02404F8E538F208E539F2E53425CC
:10067000E02448F8E4F208F2E53425E025E0243CE3
:10068000F812027C00000000C2080534E534640260
:1006900060030205E922E4F534F533E53325E0256E
:1006A000E0243CF812027C000000000533E533B47E
:1006B00002E912185AE4F533E53325E025E0243C3D
:1006C000F8C000E2FC08E2FD08E2FE08E2FFE533C4
:1006D00025E025E02474F812023EEF2BFFEE3AFEEF
:1006E000ED39FDEC38FCD0001202570533E533B488
:1006F00002C60534E534C3940540B7E4F533AF349E
:10070000E4FCFDFEC004A905AA06AB07E53325E01D
:1007100025E0243CF8E2FC08E2FD08E2FE08E2FFE6
:10072000D0001201698F388E378D368C35AB38AAE0
:1007300037A936A835C00074522533F8E6FFE4FC2B
:10074000FDFED0001200DE8F388E378D368C357866
:100750000712020C8F388E378D368C35E47FB87EC9
:100760000BFDFCAB38AA37A936A835D31201FB40E4
:1007700030E5382448FFE53734F4FEE53634FFFD34
:10078000E53534FFFCE53325E025E0246CF8120262
:100790004BE53325E02400F8740BF20874B8F280BE
:1007A0001EE53325E025E0246CF81202630000000A
:1007B00000E53325E02400F8E537F208E538F2E5F6
:1007C0003325E025E0243CF812027C00000000E51F
:1007D0003325E02448F8E4F208F2E533C3940250EC
:1007E00033E53325E02400F8E2FE08E2FFE5332597
:1007F000E02404F8EEF208EFF2E53325E02408F8EF
:10080000E4F208F2E53325E025E02414F812027C36
:10081000000000000533E533640260030206EE22A7
:10082000E4FD300520ED25E024FDF582E43417F5E4
:1008300083E493FE740193FFED25E02433F8A606CC
:1008400008A6078041300420ED25E024DDF582E490
:100850003417F583E493FE740193FFED25E0243310
:10086000F8A60608A607801EED25E024CDF582E453
:100870003417F583E493FE740193FFED25E02433F0
:10088000F8A60608A6070DBD0298E4FDED25E024B4
:100890001CF8E2FE08E2FFED25E0240DF9D3E39F0A
:1008A00019E39E4016ED25E0240CF8E2FE08E2FF75
:1008B000ED25E0241CF8EEF208EFF2ED25E02433FC
:1008C000F8E6FE08E6FFEEC313FEEF13FFED25E0AA
:1008D000240DF9D3E39F19E39E5034ED25E0243332
:1008E000F8E6FE08E6FFED75F008A4245CF8A6061D
:1008F00008A607ED25E02433F8E6FE08E625E0FF2C
:10090000EE33F8ED25E0241CC8F208EFF2803CED50
:1009100025E024EDF582E43417F583E493FE7401B9
:1009200093FFED25E0240DF9D3E39F19E39E401BCF
:10093000ED25E0241CF9E3C313FE09E313FFED7575
:10094000F008A4245CF8A60608A6070DED64026072
:100950000302087CE4FDED75F008A4245CF8E6FED3
:1009600008E6FFED25E02420F8EEF208EFF20DBDD9
:1009700002E42285BA3953BA0F43BA10E4F533E5DD
:100980003325E025E02474F812026300000000051E
:1009900033E533B402E975330575ABFF121A00E491
:1009A000F534E53425E025E02474F8C00012023265
:1009B000C004C005C006C00774842534F8E675F08D
:1009C00003A424FFF582E4341AF583E493FB740155
:1009D00093FA740293F9120295A804A905AA06AB2A
:1009E00007D007D006D005D004EF2BFFEE3AFEED7E
:1009F00039FDEC38FCD00012024B0534E534C394C9
:100A000002409FE4F5AB121A00E4F534E53425E02A
:100A100025E02474F8C000120232C004C005C006EC
:100A2000C00774842534F8E675F003A424FFF5822A
:100A3000E4341AF583E493FB740193FA740293F996
:100A4000120295A804A905AA06AB07D007D006D0C4
:100A500005D004C3EF9BFFEE9AFEED99FDEC98FCE8
:100A6000D00012024B0534E534C39402409E153386
:100A7000E5336003020989E4F534E475381075370D
:100A800027F536F535AF38AE37AD36AC35780712C9
:100A9000021F8F388E378D368C35E53425E025E002
:100AA0002474F812023E1201698F388E378D368C0D
:100AB0003574522534F8A6070534E534B402BB85F5
:100AC00039BA2274FFF537F538E4FFFE020B3FE533
:100AD00032C39409501CE53225E0242AF8E2FC08D0
:100AE000E2FDE53225E02428F8ECF208EDF20532CB
:100AF00080DD7804E2FD08E2783ACDF208EDF2E418
:100B0000F532E53225E02428F8E2FC08E2FDC39541
:100B100038EC953750048C378D38D3ED9FEC9E40E0
:100B200004AE04AF050532E532B40AD6E538244BED
:100B3000FDE43537FCD3EF9DEE9C4011D2097F04D4
:100B400012193C900092EEF0A3EFF08002C209E48B
:100B5000F535F536F532E53225E02408F8E2F533CF
:100B600008E2F534C39536FFE5339535FEE4FCFD28
:100B70007B64FAF9F81200DEC006C007E53225E012
:100B8000244CF582E43400F583E0FEA3E0FFFBAAE9
:100B900006E4F9F8D007D006120169E53225E02411
:100BA00010F8EEF208EFF2AE33AF34E4FCFD7B64F4
:100BB000FAF9F81200DEC006C007E53225E0244C41
:100BC000F582E43400F583E0FEA3E0FFFBAA06E42F
:100BD000F9F8D007D006120169E53225E0240CF8B7
:100BE000EEF208EFF20532E53264026003020B46D2
:100BF00022439F04E453C6DFE5C600B5C6F3758300
:100C00000075820775FD0DE4E5FEF4FF7583007540
:100C1000820675FD0DE4E5FEB50704F59E800375BB
:100C20009E0078100000D8FC53C6E043C60843C6B7
:100C30008075960775970375830075820475FD0DA1
:100C400085FE8F75830075820375FD0DE4E5FEF466
:100C5000FF75830075820275FD0DE4E5FEB507049E
:100C6000F595800375958375BE0E5392FE90010035
:100C70007F007E02E4F0A3DFFCDEFA78007F00E470
:100C8000F208DFFC78FFE4F6D8FD75818F020CBE18
:100C9000020000020D03E493A3F8E493A34003F6DB
:100CA0008001F208DFF48029E493A3F85407240CB0
:100CB000C8C333C4540F4420C8834004F456800191
:100CC00046F6DFE4800B01020408102040809016F5
:100CD0001DE47E019360BCA3FF543F30E509541F1F
:100CE000FEE493A360010ECF54C025E060A840B895
:100CF000E493A3FAE493A3F8E493A3C8C582C8CA13
:100D0000C583CAF0A3C8C582C8CAC583CADFE9DEE5
:100D1000E780BE121AAD7D01E4FF1218967F011222
:100D20001A4C7F01121A90121BF9121BEC121A2690
:100D30001214D1121907121970D2AF753E01E53E97
:100D400024FD601714602024FE602E14603214709D
:100D500003020DE624076003020DE9121782121246
:100D6000AF753E04020DE9D2D8E53F70FC12003E9B
:100D7000121B17753E06020DE912029B8F3E807909
:100D8000D390007DE0940090007CE09400400CA3A0
:100D9000E024FFF090007CE034FFF0D3900091E07D
:100DA0009400900090E09400400CA3E024FFF090A9
:100DB0000090E034FFF0D3900093E0940090009214
:100DC000E094004016A3E024FFF0900092E034FF8E
:100DD000F0E07002A3E07003121544900079E00483
:100DE000F07006900078E004F01213D8120F338FE1
:100DF0003E753E048003753E0490008DE0B40124EE
:100E0000E4784BF6FF121BF9E4F0F51CF51D000524
:100E10001DE51D7002051CB42CF4E51CB401EF7F28
:100E200001121BF912102C020D2E227533077D07BB
:100E300074017E00A833088005C333CE33CED8F9C1
:100E4000FFACACECFBE4EF5B7003D533E3ED601D6E
:100E500074017E00A805088005C333CE33CED8F9CF
:100E6000FFACAEECFBE4EF5B70031D80E0AF3374CE
:100E700001A807088002C333D8FCF5AC7401A805AB
:100E8000088002C333D8FCFFF5AD8FAE53AACF85DF
:100E9000BA3C53BA0F43BA10E4F537F536F535F5D9
:100EA00034121A00E4F53374842533F8E675F00340
:100EB000A424FFF582E4341AF583E493740193FAD1
:100EC000740293F91202958F3B8E3A8D398C38ABB0
:100ED00037AA36A935A834C31201FB500C853B371D
:100EE000853A368539358538340533E533C3940280
:100EF00040B5AF37AE36AD35AC34780212020CE5F2
:100F0000372FF537E5363EF536E5353DF535E53431
:100F10003CF534AF37AE36AD35FC781012020C8F8D
:100F2000B3AF37AE36AD35AC34780812020C8FB2A1
:100F30008537B143AA30853CBA75AC0375ADC07531
:100F4000AEC022E4F530753108120AB31218161239
:100F5000134D1219D5900075EFF012000EEF605F7F
:100F60007F0112193CAD07AC06D390007DE09400E0
:100F700090007CE094004010ECC4F854F0C868FC89
:100F8000EDC4540F48FD802E300811EDAE047803F7
:100F9000CEC313CE13D8F9FDAC06801AC37825E270
:100FA000941E18E29400500EECC4F854F0C868FC8B
:100FB000EDC4540F48FDAF05AE041204918003AF99
:100FC0003122900074E06034E4900080F0A3F0904F
:100FD000007FE004F0700690007EE004F07F0512D0
:100FE000193CD390007FE09F90007EE09E4014E487
:100FF000FF12167CE4900076F07F0322E490007EDE
:10100000F0A3F0900074E0FF900076E06F602A1289
:10101000167C900074E0900076F0784CE654F06016
:10102000187F0C12193C900090EEF0A3EFF09000A6
:1010300090E0C313F0A3E013F0AF312220CA030203
:10104000111F7841E6700302111FE4784BF6F5306A
:1010500074412530F8E6FF74262530F8A607744160
:101060002530F8E4F60530E530B40AE4784BE67054
:101070000320CA12E4F53074262530F8E4F6053072
:10108000E530B40AF222E52624E0601624B06019A7
:1010900024C0603614601D24A17043E4FF121A4C72
:1010A000803C7F01121A4C8035E4FF121B407851BE
:1010B000A607802A785C76030876E87864760308C9
:1010C00076E8784FE64420F68014785C760008765F
:1010D0002878647600087628784FE654DFF6E5260F
:1010E00054F064807049E52745286043E527FE7C7D
:1010F00000E42528FFEC3EFEC3EF940AEE94004086
:101100002EE526540FFDBD0F19E4F530E53075F0DE
:1011100008A4245CF8A60608A6070530E530B4024A
:10112000EB22ED75F008A4245CF8A60608A60722B9
:10113000C0E0C0F0C083C082C0D075D008C2CF303C
:10114000CD030211F330CB4720CC447840A6CEE645
:10115000FFC39480403075F003EFA424AEF582E520
:10116000F03415F583E493FB740193FA7402938BC6
:10117000238A24F5250525E5257002052414F91296
:10118000005EF5CE80097840E62522F8E6F5CE30FF
:10119000CC297840E6C394804015AB230525E5258E
:1011A000AA247002052414F912005EF5CE8050784E
:1011B0004006E62522F8E6F5CE804420CB41AFCEAE
:1011C0007840E6FE7028BF10028034BF2002802FD6
:1011D000BF5008784FE64401F68024BF6008784F7E
:1011E000E654FEF680197841A60F18068011EEC36A
:1011F000940A50087840E62441F8A60F7840067813
:101200004B7601D0D0D082D083D0F0D0E032E4FF52
:10121000FEEE75F008A4245CF8E6FC08E6FDEE2579
:10122000E02411F9C3E39D19E39C400D7401A80665
:10123000088002C333D8FC42070EBE02D4807DEE84
:10124000C394025077EE75F008A4245CF8E6FC081D
:10125000E6FDEE25E02411F9C3E39D19E39C401D52
:10126000EE25E02415F9C3E3940A19E39400400D38
:101270007401A806088002C333D8FC4207EE75F05B
:1012800008A4246CF8E6FC08E6FDEE25E02415F938
:10129000C3E39D19E39C4021EE25E02411F9C3E34B
:1012A000940A19E394004011EE2402FD7401A8058C
:1012B000088002C333D8FC42070E80838F1822E4D3
:1012C000F531F532121ACAE4900074F0900076F00D
:1012D000A3F090007EF0A3F0A3F0A3F0900094F0B0
:1012E000A3F0900090F0A3F0F521F530E53025E073
:1012F000244CF582E43400F583E0FEA3E0FF900087
:1013000088E02FF0900087E03EF00530E530B40231
:10131000DB900087E0FEA3E0FF7C007D0A120089DD
:10132000900087EEF0A3EFF0120E1B120963120675
:10133000868019E530C3940A5012E53025E0242850
:10134000F8740BF20874B8F2053080E77F0A1219BE
:101350003C90007CEEF0A3EFF0121B1722E4F53274
:10136000E53225E02404F8E2FE08E2FFE53225E05C
:101370002400F8E2FC08E2FDC39FEC9E5048E532F1
:1013800025E02405F8C3E29DF53418E29CF533FE10
:10139000AF34E4FCFD7B64FAF9F81200DEC006C04D
:1013A00007E53225E0244CF582E43400F583E0FEC5
:1013B000A3E0FFFBAA06E4F9F8D007D00612016902
:1013C0008E358F368009E4F533F534F535F536D3AF
:1013D000E536940AE53594004002D2080532E5323C
:1013E0006402600302135022E4F530E53075F00822
:1013F000A4245EFFE53025E0240CF8E2FC08E2FDC1
:10140000121B2CE53075F008A42460FFE53025E0C0
:101410002408F8E2FC08E2FD121B2CE53075F00808
:10142000A42462FBC003E53025E02400F8E2FE08B6
:10143000E2FFE4FCFDE53025E025E0246CF8120233
:101440003EEF2BFFEE3AFEED39FDEC38FC7804124E
:10145000020CAD07AC06D007121B2C0530E530C3DB
:1014600094024087784FE6F520227DFF80707864F3
:10147000E6FE08E6FFC37813E29F18E29E4010786C
:1014800074E6FE08E6FF7817E29F18E29E504F7858
:101490000CE2FE08E2FF7809E22FF53418E23EF58F
:1014A00033780EE2FE08E2FF780BE22FFF18E23EEF
:1014B000AB07FAEB25E0FFEA33FEC3E5349FE533E3
:1014C0009E50035305FAE53425E0FFE53333FEC3B0
:1014D000EB9FEA9E50085305F580035305F08D19E4
:1014E00022E4F530784CF6FF121B408F30E530BF18
:1014F000FF06784D76048004784D76FF784E76139B
:10150000E408F6785176FFFFEF25E024CDF582E47C
:101510003417F583E493FC740193FDEF75F008A490
:10152000245CF8A60408A605EF75F008A4245EF86C
:10153000E4F608F6EF75F008A42460F8E4F608F67F
:10154000EF75F008A42462F8E4F608F60FBF02B8BD
:1015500075224C22E4FBEB25E025E0247CF8120206
:1015600032EF2448FFEE34F4FEED34FFFDEC34FF9F
:10157000FCEB25E025E0246CF812024BEB25E0247F
:1015800000F8740BF20874B8F2EBC394025017EB36
:1015900025E02408F8E4F208F2EB25E02404F874CE
:1015A0000BF20874B8F20BBB02AC22EBC3940A50E6
:1015B00010EB25E02428F8740BF20874B8F20B80C5
:1015C000EA22C0E0C0F0C083C082C0D075D000C0A5
:1015D00000C004C005C006C007C28D758CD8758ACE
:1015E000F0051FE51F7002051EAE1EFF7C007D6426
:1015F000120089ED4C7021900078E0FEA3E0FFD34B
:10160000940AEE94004006A3EEF0A3EFF090007869
:10161000E4F0A3F0F51EF51FD007D006D005D004E6
:10162000D000D0D0D082D083D0F0D0E03208840176
:1016300002FFFFFFFFFFFF048C00000000604A0074
:101640004C01AE01AE0064006400640064006400FC
:1016500064010204080506070800000000000000FD
:10166000000000000000000000000000000000007A
:10167000000000000000000000000000000000006A
:1016800000000000000000000000000090008DE05D
:10169000705504F0E4FEFDFC7401A804088002C348
:1016A00033D8FCF9FB900076E05BB50313EC24041F
:1016B000FA7401A802088002C333D8FC42068003F2
:1016C000E94206EF5BB50305E942058011EC24040D
:1016D000FB7401A803088002C333D8FC42050CBC8C
:1016E00002B6EE5D784CF622C0E0C0F0C083C08246
:1016F000C0D075D01053B9FD753D007484253DF8F8
:10170000E675F003A424FFF582E4341AF583E4932C
:10171000740193FA740293F9120295E53D25E025D0
:10172000E02474F812024B053DE53DC3940240CB22
:10173000753F00D0D0D082D083D0F0D0E032FE0010
:1017400000FE0008FE0004FE000CFE0008FE001073
:10175000FE000CFE0014FE0010FE001800007400D5
:10176000007C00008400008C00001801007501005E
:1017700074010076FE0014FE001C01007801009246
:1017800001008D01009001006401006CFE0020FE4C
:101790000048E4FFFE74842EF8E690180D9342078B
:1017A0000EBE02F1EF42D4EF42F4EF42E4EFF45206
:1017B000DC75AA3B75BA0C43BA4043B92053B9BF94
:1017C0008FB4E4F5B375B24E75B12075BBFF75A942
:1017D00050F5AB75AC0375ADC075AEC022002800E6
:1017E0002800320032003200320032003200320073
:1017F0003200320032003200320032003200780013
:101800007800320032003200320032003203E80346
:10181000E8003200320032003200320032010204AD
:101820000810204080F97810E2FE08E2FF8E32F5C1
:10183000337D01ED25E02410F8E2FA08E2FBC395C0
:1018400033EA953250048A328B33D3EB9FEA9E40C1
:1018500004AE02AF030DBD02DA7826E532F208E5E8
:1018600033F27824EEF208EFF222121A00E4F5398E
:1018700074842539F8E675F003A424FFF582E43476
:101880001AF583E493740193FA740293F9120295A2
:10189000E53925E025E02474F812024B0539E539D5
:1018A000C3940240CB22E4FE7C02ECC39402500EAF
:1018B00074842CF8E690180D9342060C80ECEF60CF
:1018C00005EE42D48004EEF452D4EEF4FF52F4EE6E
:1018D00042E4ED6005EE42EC8003EF52ECEF52DCA7
:1018E00022E4FFFEEE75F008A4245DF8E624FBFD7B
:1018F00018E634FFFCEE25E0240DF9C3E39D19E35F
:101900009C400D7401A806088002C333D8FC42072E
:101910000EBE02D08F1B227E007F64E4FDED25E029
:101920002470F582E4341AF583E493F4601DED2508
:10193000E02471F582E4341AF583E493FCEF2DF58D
:1019400082E43EF583ECF00DBD10D22275390075AE
:101950003A647B017A00BFFF057F017E0022E53AF1
:101960002FF582E43539F583E07A00FB90007AE0C8
:10197000FCA3E0FDAF037E00120077AA06AB0722AE
:1019800043F80875CD4053CC7F43CC4043CC204333
:10199000CC1043CC0453CCFD43CB0243CB0153CBFF
:1019A000BF43E80853E5FC43E30243F503439003D8
:1019B00043ED0322A907E4FDFC74017E00A804089E
:1019C0008005C333CE33CED8F9FFE9FBE4EF5B608B
:1019D0000D7401A804088002C333D8FC42050CBC76
:1019E00002D7AF05221208101211FE12145A12006B
:1019F000031218D1900074E0700D851832E5195269
:101A000032E51A52328003851B32AF321219A422FA
:101A100075BF0F0000000000000000000000000083
:101A20000000000000D2D853B9FD43B901E5B93038
:101A3000E1FBE4F5BF22438901C28DD2A953B8FD71
:101A4000E4F51EF51F900078F0A3F0A3F0A37464F2
:101A5000F0758CD8758AF0D28CD2AF22E4FE7D026C
:101A6000EDC39402500E74842DF8E690180D934245
:101A7000060D80ECEF6004EE428022EEF4528022EC
:101A80000002010102010301040205060606070225
:101A9000080A09020A020B280C010D030E01FF01BE
:101AA000EF600543D504800353D5FB53F5FB53E5A5
:101AB000FB43E30443ED04E490008DF022E4F5E3FE
:101AC000439F10439F02FF0FBFFFFC539FEF75BE64
:101AD0000EE4F5BFF5B97592762253BAFEE5B9204A
:101AE000E004E53F6005E5B930E1FBE4F5BF53B93B
:101AF000FE53B9FD22AB07AA06D3EB9DEA9C400733
:101B0000EB9DFFEA9CFE22C3ED9BFFEC9AFE22FFB9
:101B10001B54FF1B67FF1B7AFF1B8DFF1BA0FF1BC6
:101B2000B3FF1BC6FF1BD975BF0F43B92053B9FDC7
:101B300043BA01753F0143B901D2D822AB07AF04C4
:101B4000AE05C2AFA803A607E804F8A606D2AF22E6
:101B5000E4FFF582F5837420FEE493F42FFFA3EEF7
:101B6000B583F62253B9EF788DA6B708A6B608A6B6
:101B7000B5788C1202322253B9EF788DA6EB08A605
:101B8000EA08A6E9788C1202322253B9EF788DA6C2
:101B9000F308A6F208A6F1788C1202322253B9EFAC
:101BA000788DA6FB08A6FA08A6F9788C12023222D4
:101BB00043B910788DA6B708A6B608A6B5788C12DA
:101BC00002322243B910788DA6EB08A6EA08A6E9EE
:101BD000788C1202322243B910788DA6F308A6F24F
:101BE00008A6F1788C1202322243B910788DA6FB38
:101BF00008A6FA08A6F9788C12023222C2DA53D863
:101C00000F43D8D0D2D8D2D922EF6003D29222C2C9
:101C10009222FFFFFFFFFFFFFFFFFFFFFFFFFFFF1E
:101C2000FFFFFFFFFFFFFFFFFFFFFFFFFFFFFFFFC4
:00000001FF
